{
  "contractName": "Sorteio",
  "abi": [
    {
      "inputs": [],
      "stateMutability": "nonpayable",
      "type": "constructor"
    },
    {
      "anonymous": false,
      "inputs": [
        {
          "indexed": true,
          "internalType": "address",
          "name": "previousOwner",
          "type": "address"
        },
        {
          "indexed": true,
          "internalType": "address",
          "name": "newOwner",
          "type": "address"
        }
      ],
      "name": "OwnershipTransferred",
      "type": "event"
    },
    {
      "anonymous": false,
      "inputs": [
        {
          "indexed": false,
          "internalType": "uint256",
          "name": "numeroTelefone",
          "type": "uint256"
        },
        {
          "indexed": false,
          "internalType": "string",
          "name": "topicoSorteado",
          "type": "string"
        }
      ],
      "name": "TopicoSorteado",
      "type": "event"
    },
    {
      "inputs": [
        {
          "internalType": "bytes32",
          "name": "",
          "type": "bytes32"
        }
      ],
      "name": "nonces",
      "outputs": [
        {
          "internalType": "uint256",
          "name": "",
          "type": "uint256"
        }
      ],
      "stateMutability": "view",
      "type": "function",
      "constant": true
    },
    {
      "inputs": [],
      "name": "owner",
      "outputs": [
        {
          "internalType": "address",
          "name": "",
          "type": "address"
        }
      ],
      "stateMutability": "view",
      "type": "function",
      "constant": true
    },
    {
      "inputs": [],
      "name": "randomResult",
      "outputs": [
        {
          "internalType": "uint256",
          "name": "",
          "type": "uint256"
        }
      ],
      "stateMutability": "view",
      "type": "function",
      "constant": true
    },
    {
      "inputs": [
        {
          "internalType": "bytes32",
          "name": "requestId",
          "type": "bytes32"
        },
        {
          "internalType": "uint256",
          "name": "randomness",
          "type": "uint256"
        }
      ],
      "name": "rawFulfillRandomness",
      "outputs": [],
      "stateMutability": "nonpayable",
      "type": "function"
    },
    {
      "inputs": [],
      "name": "renounceOwnership",
      "outputs": [],
      "stateMutability": "nonpayable",
      "type": "function"
    },
    {
      "inputs": [
        {
          "internalType": "uint256",
          "name": "",
          "type": "uint256"
        }
      ],
      "name": "topics",
      "outputs": [
        {
          "internalType": "string",
          "name": "",
          "type": "string"
        }
      ],
      "stateMutability": "view",
      "type": "function",
      "constant": true
    },
    {
      "inputs": [
        {
          "internalType": "address",
          "name": "newOwner",
          "type": "address"
        }
      ],
      "name": "transferOwnership",
      "outputs": [],
      "stateMutability": "nonpayable",
      "type": "function"
    },
    {
      "inputs": [
        {
          "internalType": "uint256",
          "name": "userProvidedSeed",
          "type": "uint256"
        }
      ],
      "name": "getRandomNumber",
      "outputs": [
        {
          "internalType": "bytes32",
          "name": "requestId",
          "type": "bytes32"
        }
      ],
      "stateMutability": "nonpayable",
      "type": "function"
    },
    {
      "inputs": [
        {
          "internalType": "uint256[]",
          "name": "userProvidedSeeds",
          "type": "uint256[]"
        }
      ],
      "name": "sorteio",
      "outputs": [],
      "stateMutability": "nonpayable",
      "type": "function"
    }
  ],
  "bytecode": "0x61018060405265050397b6216060c090815265050397b9621760e05265050397549afb6101005265050397a3090c6101205265050397b338e1610140526505039842de0a610160526200005790600490600662000293565b506040805161010081018252601060c082019081526f486973746f72696120646f20434d4f5360801b60e0830152815281518083018352601d81527f436f6e666967757261636f657320434d4f532028436f6d616e646f732900000060208281019190915280830191909152825180840184528181527f4469737369706163616f202844696e616d696361206520457374617469636129818301528284015282518084018452601e81527f506172616d6574726f7320456c65747269636f7320457374617469636f730000818301526060830152825180840184528181527f434d4f5320416e616c6f6769636f202841706c696361636f65732c20657463298183015260808301528251808401909352601483527f434d4f5320656d20636972637569746f732052460000000000000000000000009083015260a0810191909152620001a8906005906006620002ed565b50348015620001b657600080fd5b507fb3dccb4cf7a26f6cf6b120cf5a73875b7bbc655b00000000000000000000000060a0527f01be23585060835e02b77ef475b0cc51aa1e070900000000000000000000000060805260006200020b6200028f565b600180546001600160a01b0319166001600160a01b038316908117909155604051919250906000907f8be0079c531659141344cd1fd0a4f28419497f9722a3daafe3b4186f6b6457e0908290a3507f2ed0feb3e7fd2022120aa84fab1945545a9f2ffc9076fd6156fa96eaff4c131160025567016345785d8a000060035562000436565b3390565b828054828255906000526020600020908101928215620002db579160200282015b82811115620002db578251829065ffffffffffff16905591602001919060010190620002b4565b50620002e992915062000340565b5090565b826006810192821562000332579160200282015b828111156200033257825180516200032191849160209091019062000357565b509160200191906001019062000301565b50620002e9929150620003ca565b5b80821115620002e9576000815560010162000341565b828054600181600116156101000203166002900490600052602060002090601f016020900481019282601f106200039a57805160ff1916838001178555620002db565b82800160010185558215620002db579182015b82811115620002db578251825591602001919060010190620003ad565b80821115620002e9576000620003e18282620003eb565b50600101620003ca565b50805460018160011615610100020316600290046000825580601f1062000413575062000433565b601f01602090049060005260206000209081019062000433919062000340565b50565b60805160601c60a05160601c610bee6200046a600039806103f552806108f352508061050452806108c45250610bee6000f3fe608060405234801561001057600080fd5b50600436106100935760003560e01c806394985ddd1161006657806394985ddd146101725780639e317f1214610195578063b37217a4146101b2578063bbf8f7d8146101cf578063f2fde38b1461027257610093565b806318d9adab1461009857806342619f661461012a578063715018a6146101445780638da5cb5b1461014e575b600080fd5b6100b5600480360360208110156100ae57600080fd5b5035610298565b6040805160208082528351818301528351919283929083019185019080838360005b838110156100ef5781810151838201526020016100d7565b50505050905090810190601f16801561011c5780820380516001836020036101000a031916815260200191505b509250505060405180910390f35b610132610333565b60408051918252519081900360200190f35b61014c610339565b005b6101566103db565b604080516001600160a01b039092168252519081900360200190f35b61014c6004803603604081101561018857600080fd5b50803590602001356103ea565b610132600480360360208110156101ab57600080fd5b5035610475565b610132600480360360208110156101c857600080fd5b5035610487565b61014c600480360360208110156101e557600080fd5b81019060208101813564010000000081111561020057600080fd5b82018360208201111561021257600080fd5b8035906020019184602083028401116401000000008311171561023457600080fd5b9190808060200260200160405190810160405280939291908181526020018383602002808284376000920191909152509295506105c8945050505050565b61014c6004803603602081101561028857600080fd5b50356001600160a01b0316610651565b600581600681106102a557fe5b018054604080516020601f60026000196101006001881615020190951694909404938401819004810282018101909252828152935083018282801561032b5780601f106103005761010080835404028352916020019161032b565b820191906000526020600020905b81548152906001019060200180831161030e57829003601f168201915b505050505081565b600c5481565b61034161074a565b6001546001600160a01b03908116911614610391576040805162461bcd60e51b81526020600482018190526024820152600080516020610b99833981519152604482015290519081900360640190fd5b6001546040516000916001600160a01b0316907f8be0079c531659141344cd1fd0a4f28419497f9722a3daafe3b4186f6b6457e0908390a3600180546001600160a01b0319169055565b6001546001600160a01b031690565b336001600160a01b037f00000000000000000000000000000000000000000000000000000000000000001614610467576040805162461bcd60e51b815260206004820152601f60248201527f4f6e6c7920565246436f6f7264696e61746f722063616e2066756c66696c6c00604482015290519081900360640190fd5b610471828261074e565b5050565b60006020819052908152604090205481565b600061049161074a565b6001546001600160a01b039081169116146104e1576040805162461bcd60e51b81526020600482018190526024820152600080516020610b99833981519152604482015290519081900360640190fd5b600354604080516370a0823160e01b815230600482015290516001600160a01b037f000000000000000000000000000000000000000000000000000000000000000016916370a08231916024808301926020929190829003018186803b15801561054a57600080fd5b505afa15801561055e573d6000803e3d6000fd5b505050506040513d602081101561057457600080fd5b505110156105b35760405162461bcd60e51b815260040180806020018281038252602b815260200180610b6e602b913960400191505060405180910390fd5b6105c2600254600354846108c0565b92915050565b6105d061074a565b6001546001600160a01b03908116911614610620576040805162461bcd60e51b81526020600482018190526024820152600080516020610b99833981519152604482015290519081900360640190fd5b60005b81518110156104715761064882828151811061063b57fe5b6020026020010151610487565b50600101610623565b61065961074a565b6001546001600160a01b039081169116146106a9576040805162461bcd60e51b81526020600482018190526024820152600080516020610b99833981519152604482015290519081900360640190fd5b6001600160a01b0381166106ee5760405162461bcd60e51b8152600401808060200182810382526026815260200180610b486026913960400191505060405180910390fd5b6001546040516001600160a01b038084169216907f8be0079c531659141344cd1fd0a4f28419497f9722a3daafe3b4186f6b6457e090600090a3600180546001600160a01b0319166001600160a01b0392909216919091179055565b3390565b600c819055600454600090828161076157fe5b06905060006004828154811061077357fe5b600091825260209091200154600b549091507fa7dc6294a9e872910325f2849e8c4152a98eafb116fb485368f0bca2e608b52690829060059060ff16600681106107b957fe5b604080518481526020810182815293909201805460026000196101006001841615020190911604918301829052929060608301908490801561083c5780601f106108115761010080835404028352916020019161083c565b820191906000526020600020905b81548152906001019060200180831161081f57829003601f168201915b5050935050505060405180910390a160048054600019810190811061085d57fe5b90600052602060002001546004838154811061087557fe5b600091825260209091200155600480548061088c57fe5b6000828152602081208201600019908101919091550190555050600b805460ff8082166001011660ff199091161790555050565b60007f00000000000000000000000000000000000000000000000000000000000000006001600160a01b0316634000aea07f000000000000000000000000000000000000000000000000000000000000000085878660405160200180838152602001828152602001925050506040516020818303038152906040526040518463ffffffff1660e01b815260040180846001600160a01b0316815260200183815260200180602001828103825283818151815260200191508051906020019080838360005b8381101561099c578181015183820152602001610984565b50505050905090810190601f1680156109c95780820380516001836020036101000a031916815260200191505b50945050505050602060405180830381600087803b1580156109ea57600080fd5b505af11580156109fe573d6000803e3d6000fd5b505050506040513d6020811015610a1457600080fd5b5050600084815260208190526040812054610a3490869085903090610a73565b600086815260208190526040902054909150610a51906001610aba565b600086815260208190526040902055610a6a8582610b1b565b95945050505050565b60408051602080820196909652808201949094526001600160a01b039290921660608401526080808401919091528151808403909101815260a09092019052805191012090565b600082820183811015610b14576040805162461bcd60e51b815260206004820152601b60248201527f536166654d6174683a206164646974696f6e206f766572666c6f770000000000604482015290519081900360640190fd5b9392505050565b60408051602080820194909452808201929092528051808303820181526060909201905280519101209056fe4f776e61626c653a206e6577206f776e657220697320746865207a65726f20616464726573734e6f7420656e6f756768204c494e4b202d2066696c6c20636f6e74726163742077697468206661756365744f776e61626c653a2063616c6c6572206973206e6f7420746865206f776e6572a2646970667358221220ac289ecf784bd60a3aba244f0803419e336df1589dadc74486bb5ff768e7f22464736f6c634300060c0033",
  "immutableReferences": {
    "287": [
      {
        "length": 32,
        "start": 1284
      },
      {
        "length": 32,
        "start": 2244
      }
    ],
    "289": [
      {
        "length": 32,
        "start": 1013
      },
      {
        "length": 32,
        "start": 2291
      }
    ]
  },
  "source": "// SPDX-License-Identifier: MIT\npragma solidity >=0.4.22 <0.8.0;\n\nimport \"@chainlink/contracts/src/v0.6/VRFConsumerBase.sol\";\nimport \"@openzeppelin/contracts/access/Ownable.sol\";\n\ncontract Sorteio is VRFConsumerBase, Ownable {\n    bytes32 internal keyHash;\n    uint256 internal fee;\n\n    uint256[] private numbers = [\n        5512988336480,\n        5512988549655,\n        5512981945083,\n        5512987085068,\n        5512988145889,\n        5512997559818\n    ];\n\n    string[6] public topics = [\n        \"Historia do CMOS\",\n        \"Configuracoes CMOS (Comandos)\",\n        \"Dissipacao (Dinamica e Estatica)\",\n        \"Parametros Eletricos Estaticos\",\n        \"CMOS Analogico (Aplicacoes, etc)\",\n        \"CMOS em circuitos RF\"\n    ];\n\n    uint8 private topicIndex;\n\n    uint256 public randomResult;\n\n    event TopicoSorteado(uint256 numeroTelefone, string topicoSorteado);\n\n    /**\n     * Constructor inherits VRFConsumerBase\n     *\n     * Network: Rinkeby\n     * Chainlink VRF Coordinator address: 0xb3dCcb4Cf7a26f6cf6B120Cf5A73875B7BBc655B\n     * LINK token address:                0x01BE23585060835E02B77ef475b0Cc51aA1e0709\n     * Key Hash: 0x2ed0feb3e7fd2022120aa84fab1945545a9f2ffc9076fd6156fa96eaff4c1311\n     */\n    constructor()\n        public\n        VRFConsumerBase(\n            0xb3dCcb4Cf7a26f6cf6B120Cf5A73875B7BBc655B, // VRF Coordinator\n            0x01BE23585060835E02B77ef475b0Cc51aA1e0709 // LINK Token\n        )\n    {\n        keyHash = bytes32(\n            0x2ed0feb3e7fd2022120aa84fab1945545a9f2ffc9076fd6156fa96eaff4c1311\n        );\n        fee = 0.1 * 10**18; // 0.1 LINK\n    }\n\n    /**\n     * Requests randomness from a user-provided seed\n     */\n    function getRandomNumber(uint256 userProvidedSeed)\n        public\n        onlyOwner\n        returns (bytes32 requestId)\n    {\n        require(\n            LINK.balanceOf(address(this)) >= fee,\n            \"Not enough LINK - fill contract with faucet\"\n        );\n        return requestRandomness(keyHash, fee, userProvidedSeed);\n    }\n\n    /**\n     * Callback function used by VRF Coordinator\n     */\n    function fulfillRandomness(bytes32 requestId, uint256 randomness)\n        internal\n        override\n    {\n        randomResult = randomness;\n\n        uint256 randomIndex = randomResult % numbers.length;\n        uint256 selectedNumber = numbers[randomIndex];\n\n        emit TopicoSorteado(selectedNumber, topics[topicIndex]);\n\n        // Delete the selectedNumber from the array\n        numbers[randomIndex] = numbers[numbers.length - 1];\n        numbers.pop();\n\n        topicIndex++;\n    }\n\n    function sorteio(uint256[] memory userProvidedSeeds) public onlyOwner {\n        for (uint256 i = 0; i < userProvidedSeeds.length; i++) {\n            getRandomNumber(userProvidedSeeds[i]);\n        }\n    }\n}\n",
  "sourcePath": "/home/andre/src/repos/github/sorteio-topicos-circuitos-logicos/contracts/Sorteio.sol",
  "compiler": {
    "name": "solc",
    "version": "0.6.12+commit.27d51765.Emscripten.clang"
  },
  "schemaVersion": "3.3.2",
  "updatedAt": "2020-11-08T02:33:44.197Z",
  "networkType": "ethereum",
  "devdoc": {
    "kind": "dev",
    "methods": {
      "owner()": {
        "details": "Returns the address of the current owner."
      },
      "renounceOwnership()": {
        "details": "Leaves the contract without owner. It will not be possible to call `onlyOwner` functions anymore. Can only be called by the current owner. NOTE: Renouncing ownership will leave the contract without an owner, thereby removing any functionality that is only available to the owner."
      },
      "transferOwnership(address)": {
        "details": "Transfers ownership of the contract to a new account (`newOwner`). Can only be called by the current owner."
      }
    },
    "version": 1
  },
  "userdoc": {
    "kind": "user",
    "methods": {
      "constructor": "Constructor inherits VRFConsumerBase Network: Rinkeby Chainlink VRF Coordinator address: 0xb3dCcb4Cf7a26f6cf6B120Cf5A73875B7BBc655B LINK token address:                0x01BE23585060835E02B77ef475b0Cc51aA1e0709 Key Hash: 0x2ed0feb3e7fd2022120aa84fab1945545a9f2ffc9076fd6156fa96eaff4c1311",
      "getRandomNumber(uint256)": {
        "notice": "Requests randomness from a user-provided seed"
      }
    },
    "version": 1
  }
}